{
  "contractName": "LoginSystem",
  "abi": [
    {
      "anonymous": false,
      "inputs": [
        {
          "indexed": true,
          "internalType": "address",
          "name": "user",
          "type": "address"
        }
      ],
      "name": "UserLoggedIn",
      "type": "event"
    },
    {
      "inputs": [
        {
          "internalType": "address",
          "name": "",
          "type": "address"
        }
      ],
      "name": "isLoggedIn",
      "outputs": [
        {
          "internalType": "bool",
          "name": "",
          "type": "bool"
        }
      ],
      "stateMutability": "view",
      "type": "function",
      "constant": true
    },
    {
      "inputs": [
        {
          "internalType": "address",
          "name": "",
          "type": "address"
        }
      ],
      "name": "userHouseName",
      "outputs": [
        {
          "internalType": "string",
          "name": "",
          "type": "string"
        }
      ],
      "stateMutability": "view",
      "type": "function",
      "constant": true
    },
    {
      "inputs": [],
      "name": "connectWallet",
      "outputs": [],
      "stateMutability": "nonpayable",
      "type": "function"
    },
    {
      "inputs": [
        {
          "internalType": "string",
          "name": "houseName",
          "type": "string"
        }
      ],
      "name": "setHouseName",
      "outputs": [],
      "stateMutability": "nonpayable",
      "type": "function"
    },
    {
      "inputs": [],
      "name": "getHouseName",
      "outputs": [
        {
          "internalType": "string",
          "name": "",
          "type": "string"
        }
      ],
      "stateMutability": "view",
      "type": "function",
      "constant": true
    },
    {
      "inputs": [],
      "name": "isUserLoggedIn",
      "outputs": [
        {
          "internalType": "bool",
          "name": "",
          "type": "bool"
        }
      ],
      "stateMutability": "view",
      "type": "function",
      "constant": true
    }
  ],
  "bytecode": "0x608060405234801561001057600080fd5b50610bed806100206000396000f3fe608060405234801561001057600080fd5b50600436106100625760003560e01c8063166879cd146100675780632d66f0631461009757806361be861b146100a15780638c365622146100bf578063dd7ee06c146100dd578063f44a8bef146100f9575b600080fd5b610081600480360381019061007c91906105d0565b610129565b60405161008e919061068d565b60405180910390f35b61009f6101c9565b005b6100a96102b6565b6040516100b691906106ca565b60405180910390f35b6100c7610309565b6040516100d4919061068d565b60405180910390f35b6100f760048036038101906100f2919061081a565b610463565b005b610113600480360381019061010e91906105d0565b61053e565b60405161012091906106ca565b60405180910390f35b6001602052806000526040600020600091509050805461014890610892565b80601f016020809104026020016040519081016040528092919081815260200182805461017490610892565b80156101c15780601f10610196576101008083540402835291602001916101c1565b820191906000526020600020905b8154815290600101906020018083116101a457829003601f168201915b505050505081565b6000803373ffffffffffffffffffffffffffffffffffffffff1673ffffffffffffffffffffffffffffffffffffffff16815260200190815260200160002060009054906101000a900460ff166102b45760016000803373ffffffffffffffffffffffffffffffffffffffff1673ffffffffffffffffffffffffffffffffffffffff16815260200190815260200160002060006101000a81548160ff0219169083151502179055503373ffffffffffffffffffffffffffffffffffffffff167f8d15fde878cff665868ed7579eb5081db6508d4249df61dcdd7699a5301d987460405160405180910390a25b565b60008060003373ffffffffffffffffffffffffffffffffffffffff1673ffffffffffffffffffffffffffffffffffffffff16815260200190815260200160002060009054906101000a900460ff16905090565b60606000803373ffffffffffffffffffffffffffffffffffffffff1673ffffffffffffffffffffffffffffffffffffffff16815260200190815260200160002060009054906101000a900460ff16610396576040517f08c379a000000000000000000000000000000000000000000000000000000000815260040161038d9061090f565b60405180910390fd5b600160003373ffffffffffffffffffffffffffffffffffffffff1673ffffffffffffffffffffffffffffffffffffffff16815260200190815260200160002080546103e090610892565b80601f016020809104026020016040519081016040528092919081815260200182805461040c90610892565b80156104595780601f1061042e57610100808354040283529160200191610459565b820191906000526020600020905b81548152906001019060200180831161043c57829003601f168201915b5050505050905090565b6000803373ffffffffffffffffffffffffffffffffffffffff1673ffffffffffffffffffffffffffffffffffffffff16815260200190815260200160002060009054906101000a900460ff166104ee576040517f08c379a00000000000000000000000000000000000000000000000000000000081526004016104e59061090f565b60405180910390fd5b80600160003373ffffffffffffffffffffffffffffffffffffffff1673ffffffffffffffffffffffffffffffffffffffff168152602001908152602001600020908161053a9190610ae5565b5050565b60006020528060005260406000206000915054906101000a900460ff1681565b6000604051905090565b600080fd5b600080fd5b600073ffffffffffffffffffffffffffffffffffffffff82169050919050565b600061059d82610572565b9050919050565b6105ad81610592565b81146105b857600080fd5b50565b6000813590506105ca816105a4565b92915050565b6000602082840312156105e6576105e5610568565b5b60006105f4848285016105bb565b91505092915050565b600081519050919050565b600082825260208201905092915050565b60005b8381101561063757808201518184015260208101905061061c565b60008484015250505050565b6000601f19601f8301169050919050565b600061065f826105fd565b6106698185610608565b9350610679818560208601610619565b61068281610643565b840191505092915050565b600060208201905081810360008301526106a78184610654565b905092915050565b60008115159050919050565b6106c4816106af565b82525050565b60006020820190506106df60008301846106bb565b92915050565b600080fd5b600080fd5b7f4e487b7100000000000000000000000000000000000000000000000000000000600052604160045260246000fd5b61072782610643565b810181811067ffffffffffffffff82111715610746576107456106ef565b5b80604052505050565b600061075961055e565b9050610765828261071e565b919050565b600067ffffffffffffffff821115610785576107846106ef565b5b61078e82610643565b9050602081019050919050565b82818337600083830152505050565b60006107bd6107b88461076a565b61074f565b9050828152602081018484840111156107d9576107d86106ea565b5b6107e484828561079b565b509392505050565b600082601f830112610801576108006106e5565b5b81356108118482602086016107aa565b91505092915050565b6000602082840312156108305761082f610568565b5b600082013567ffffffffffffffff81111561084e5761084d61056d565b5b61085a848285016107ec565b91505092915050565b7f4e487b7100000000000000000000000000000000000000000000000000000000600052602260045260246000fd5b600060028204905060018216806108aa57607f821691505b6020821081036108bd576108bc610863565b5b50919050565b7f55736572206d757374206265206c6f6767656420696e2e000000000000000000600082015250565b60006108f9601783610608565b9150610904826108c3565b602082019050919050565b60006020820190508181036000830152610928816108ec565b9050919050565b60008190508160005260206000209050919050565b60006020601f8301049050919050565b600082821b905092915050565b6000600883026109917fffffffffffffffffffffffffffffffffffffffffffffffffffffffffffffffff82610954565b61099b8683610954565b95508019841693508086168417925050509392505050565b6000819050919050565b6000819050919050565b60006109e26109dd6109d8846109b3565b6109bd565b6109b3565b9050919050565b6000819050919050565b6109fc836109c7565b610a10610a08826109e9565b848454610961565b825550505050565b600090565b610a25610a18565b610a308184846109f3565b505050565b5b81811015610a5457610a49600082610a1d565b600181019050610a36565b5050565b601f821115610a9957610a6a8161092f565b610a7384610944565b81016020851015610a82578190505b610a96610a8e85610944565b830182610a35565b50505b505050565b600082821c905092915050565b6000610abc60001984600802610a9e565b1980831691505092915050565b6000610ad58383610aab565b9150826002028217905092915050565b610aee826105fd565b67ffffffffffffffff811115610b0757610b066106ef565b5b610b118254610892565b610b1c828285610a58565b600060209050601f831160018114610b4f5760008415610b3d578287015190505b610b478582610ac9565b865550610baf565b601f198416610b5d8661092f565b60005b82811015610b8557848901518255600182019150602085019450602081019050610b60565b86831015610ba25784890151610b9e601f891682610aab565b8355505b6001600288020188555050505b50505050505056fea26469706673582212206e8e821d61d62d0a633cfb9c53e4a0ac141fe7b48016a6a58538617977ba846f64736f6c63430008120033",
  "immutableReferences": {},
  "source": "// SPDX-License-Identifier: UNLICENSED\r\npragma solidity ^0.8.0;\r\n\r\ncontract LoginSystem {\r\n    mapping(address => bool) public isLoggedIn;\r\n    mapping(address => string) public userHouseName;\r\n\r\n    event UserLoggedIn(address indexed user);\r\n\r\n    modifier onlyLoggedIn() {\r\n        require(isLoggedIn[msg.sender], \"User must be logged in.\");\r\n        _;\r\n    }\r\n\r\n    function connectWallet() public {\r\n        if (!isLoggedIn[msg.sender]) {\r\n            isLoggedIn[msg.sender] = true;\r\n            emit UserLoggedIn(msg.sender);\r\n        }\r\n    }\r\n\r\n    function setHouseName(string memory houseName) public onlyLoggedIn {\r\n        userHouseName[msg.sender] = houseName;\r\n    }\r\n\r\n    function getHouseName() public view onlyLoggedIn returns (string memory) {\r\n        return userHouseName[msg.sender];\r\n    }\r\n\r\n    function isUserLoggedIn() public view returns (bool) {\r\n        return isLoggedIn[msg.sender];\r\n    }\r\n}",
  "sourcePath": "C:\\Users\\Dima\\Desktop\\Code\\auth-eth-smart-home\\contracts\\LoginSystem.sol",
  "compiler": {
    "name": "solc",
    "version": "0.8.18+commit.87f61d96.Emscripten.clang"
  },
  "schemaVersion": "3.4.14",
  "updatedAt": "2023-07-31T16:24:32.296Z",
  "networkType": "ethereum",
  "devdoc": {
    "kind": "dev",
    "methods": {},
    "version": 1
  },
  "userdoc": {
    "kind": "user",
    "methods": {},
    "version": 1
  }
}